:020000040800F2
:100000004812002019230008990200089B020008EA
:100010009F020008A3020008A702000800000000D9
:10002000000000000000000000000000AB0200081B
:10003000AD02000800000000AF020008B102000895
:100040003323000833230008332300083323000838
:100050003323000833230008332300083323000828
:100060003323000833230008332300083323000818
:100070003323000833230008332300083323000808
:1000800033230008332300083323000833230008F8
:1000900033230008332300083323000833230008E8
:1000A00033230008332300083323000833230008D8
:1000B000332300082B57000833230008332300089C
:1000C00033230008332300083323000833230008B8
:1000D0003323000847440008332300083323000873
:1000E0003323000833230008332300083323000898
:1000F0003323000833230008332300083323000888
:100100003323000833230008CF55000833230008A9
:100110003323000833230008332300083323000867
:100120003323000833230008332300083323000857
:100130003323000833230008332300083323000847
:100140003323000833230008332300083323000837
:100150003323000833230008332300083323000827
:100160003323000833230008332300083323000817
:100170003323000833230008332300083323000807
:10018000332300083323000800F002F800F04CF895
:100190000AA090E8000C82448344AAF10107DA45E2
:1001A00001D100F041F8AFF2090EBAE80F0013F0E8
:1001B000010F18BFFB1A43F00103184778730000C2
:1001C00098730000103A24BF78C878C1FAD8520753
:1001D00024BF30C830C144BF04680C6070470000C1
:1001E0000023002400250026103A28BF78C1FBD840
:1001F000520728BF30C148BF0B607047662906F020
:100200004085642905F0D682002070471FB506F0AE
:100210002EFD05F02DFE04000020002106F070FBED
:10022000E0601FBD10B510BD05F022FF1146FFF7BD
:10023000EDFF00F009F805F040FF03B4FFF7F2FF0F
:1002400003BC04F0A1F800004FF4E13004F0A9F879
:10025000A82004F017F804F0B7FB04F07BFC04F0CE
:1002600037F909A20021084604F027FB07A2022162
:10027000002004F022FB06A20421002004F01DFB54
:1002800001E004F0C0F9FCE7422F4400432F450091
:100290004C6F636174650000704700BFFEE700BFEC
:1002A000FEE700BFFEE700BFFEE7704770477047FC
:1002B000704700000CB5002001900090764800685F
:1002C00040F480307449086000BF7348006800F44F
:1002D000003000900198401C0190009818B90198D6
:1002E000B0F5A04FF1D16C48006800F4003010B1B7
:1002F0000120009001E0002000900098012846D1E4
:1003000065484030006840F08050634940310860E3
:100310006248006840F44040604908605E48083028
:1003200000685D49083108600846006840F40040F4
:1003300008600846006840F4A05008605848091F4B
:100340000860081F006840F08070091F086000BF47
:100350005148006800F000700028F9D040F20570A4
:10036000504908604C480830006820F003004A49B2
:10037000083108600846006840F00200086000BFCD
:1003800045480830006800F00C000828F8D10CBD82
:1003900010B54548006840F47000434908603E4885
:1003A000006840F001003C49086000203A490831EB
:1003B0000860394800683D490840374908603C48B2
:1003C000091D0860081F006820F48020091F0860CC
:1003D000002031490C310860FFF76CFF4FF00060DE
:1003E00031498039086010BD70B500200022022319
:1003F00000240221284D08352D6805F00C0020B19D
:10040000042806D0082834D107E02A4D2A4E35604A
:1004100033E02A4D284E35602FE01F4D2D1D2D68ED
:10042000C5F380541C4D2D1D2D6805F03F0154B1BE
:10043000224DB5FBF1F5184E361D3668C6F3881609
:1004400005FB06F209E01B4DB5FBF1F5124E361D1A
:100450003668C6F3881605FB06F20F4D2D1D2D6874
:10046000C5F301456D1C6B00B2FBF3F5124E356010
:1004700003E0104D104E356000BF00BF064D08353B
:100480002D68C5F303150E4E705D0B4D2D68C540EC
:10049000094E356070BD0000003802400070004019
:1004A00008544007003C024088ED00E0FFFFF6FEE4
:1004B000103000240024F4000400002000127A0010
:1004C000080000206FF01D00FE4908601E204860F3
:1004D0004FF4DC70886040F22670C8604FF4DC7026
:1004E00008616FF01300F84908601E2048604FF45F
:1004F0000770886040F21C70C8604FF40770086194
:100500006FF00900F14908601E20486040F2163083
:1005100088604FF4BE60C86040F216300861002069
:10052000EB4908601E20486040F29C408860801FB4
:10053000C86008610A20E74908601E2048604FF43F
:10054000BE608860C86008611420E34908601E200E
:10055000486040F24E7088604FF4F160C8600861F6
:100560001E20DE490860486040F69800886040F22E
:10057000B110C860AA2008616FF01D00D84908605A
:10058000142048604FF4C370886040F22C60C8604B
:1005900040F2122008616FF01300D2490860142065
:1005A00048604FF41670886040F2EA60C8604FF40B
:1005B000167008616FF00900CB490860142048608C
:1005C00040F2523088604FF4C860C8604FF45C70ED
:1005D00008610020C54908601420486040F21450AA
:1005E00088604FF4AA60C86040F2145008610A2085
:1005F000BF4908601420486040F2A460886040F25F
:100600006A40C86040F29A6008611420B9490860E5
:10061000486040F26270886040F2E720C86040F2B3
:10062000627008611E20B4490860142048604FF4CD
:100630000C60886040F21220C860E32008616FF00F
:100640001D00AE4908600A2048604FF4B47088600D
:1006500040F28250C8604FF4207008616FF01300C0
:10066000A74908600A20486040F27E20886040F276
:100670007E50C86040F2DA2008616FF00900A1499D
:1006800008600A2048604FF46A70886040F2346065
:10069000C86040F2A930086100209B4908600A2028
:1006A000486040F23250886040F25F50C86040F2CB
:1006B0002F5008610A2095490860486040F2C260E6
:1006C0008860401DC86008611420914908600A20B4
:1006D000486040F6590088604FF46170C86040F689
:1006E000630008611E208B4908600A20486040F6BC
:1006F0009800886040F28D20C8604FF496700861C1
:100700006FF01D00844908600020486040F2B3107B
:1007100088604FF48C60C86040F28A2008616FF0F6
:1007200013007E4908600020486040F2A9208860DC
:1007300040F2DF50C86040F23C4008616FF00900B1
:10074000774908600020486040F2C53088604FF467
:10075000A260C8604FF4866008610020714908609B
:1007600048604FF4A860886040F22D50C86040F2A5
:10077000445008610A206C4908600020486040F23B
:10078000DC60886040F21450C8604FF4DC6008619F
:100790001420664908600020486040F2527088606A
:1007A0004FF49660C86040F28A7008611E2060496C
:1007B00008600020486040F65C0088604FF4487094
:1007C000C8604FF42F7008616FF01D005949086030
:1007D0006FF0090048604FF4917088604FF47A70B0
:1007E000C8604FF4757008616FF0130052490860DB
:1007F0004010486040F28110886040F22A30C860A2
:1008000040F2163008616FF009004C4908604860FA
:100810004FF4FA70886040F2A230C86040F28E3027
:1008200008610020464908606FF00900486040F206
:10083000DA20886040F25230C86008610A204149DD
:1008400008604042486040F27440886040F2523094
:10085000C86040F27440086114203B4908606FF0A2
:10086000090048604FF4C86088604FF45C70C8604D
:100870004FF4C86008611E20344908606FF0090019
:1008800048604FF4FA6088604FF45770C8604FF4C6
:10089000F56008616FF01D002D4908606FF01300CE
:1008A0004860FA2088604FF41670C86040F26630E5
:1008B00008616FF0130027490860486040F2CA20C1
:1008C000886049E0180100202C0100204001002030
:1008D00054010020680100207C01002090010020CC
:1008E000A4010020B8010020CC010020E00100207C
:1008F000F4010020080200201C0200203002002029
:1009000044020020580200206C02002080020020D7
:1009100094020020A8020020BC020020D002002087
:10092000E4020020F80200200C0300202003002035
:1009300034030020480300205C03002070030020E3
:100940008403002098030020AC030020C003002093
:10095000D4030020E803002040F22E60C86040F27B
:10096000E97008616FF00900FB49086040004860C9
:100970004FF4BE7088604FF47A70C8600861002040
:10098000F64908606FF0130048604FF4FF7088600C
:1009900040F20230C86008610A20F14908606FF037
:1009A000130048604FF44D7088604FF41C70C860AD
:1009B00040F2523008611420EA4908604042486021
:1009C00040F27E40886040F2DA20C86040F2794010
:1009D00008611E20E44908606FF01300486040F28F
:1009E000D66088604FF44370C8604FF4DC600861E3
:1009F0006FF01D00DD4908604860C820886040F243
:100A00002620C86040F2064008616FF01300D84904
:100A100008606FF01D004860F02088604FF4BE70E1
:100A2000C8604FF4437008616FF00900D149086055
:100A30006FF01D0048604FF48C7088604FF4487070
:100A4000C8604FF45C7008610020CB4908606FF00B
:100A50001D00486040F2591088604FF4C370C860B0
:100A60004FF4487008610A20C44908606FF01D0007
:100A700048604FF4D770886040F26F10C86040F251
:100A8000EE2008611420BE4908606FF01D00486028
:100A90004FF42570886040F26310C8604FF42570F1
:100AA00008611E20B74908604042486040F2CE40CD
:100AB00088604FF43470C8604FF4966008617047E6
:100AC0000EB5B1488068B1490968401A0090002805
:100AD00001DB009901E000984142AB48C068AC4A94
:100AE0001268801A0190002801DB019801E001984A
:100AF00040420144A4480069A64A1268801A029044
:100B0000002801DB029801E0029840420144A2481B
:100B10000160A24880689D490968401A0090002839
:100B200001DB009901E0009841429C48C068984A66
:100B30001268801A0190002801DB019801E00198F9
:100B40004042014495480069924A1268801A029016
:100B5000002801DB029801E00298404201448E48DF
:100B600041608F48806889490968401A00900028D0
:100B700001DB009901E0009841428948C068844A3D
:100B80001268801A0190002801DB019801E00198A9
:100B900040420144824800697E4A1268801A0290ED
:100BA000002801DB029801E00298404201447A48A3
:100BB00081607C48806875490968401A0090002867
:100BC00001DB009901E0009841427648C068704A14
:100BD0001268801A0190002801DB019801E0019859
:100BE000404201446F4800696A4A1268801A0290C4
:100BF000002801DB029801E002984042084466495F
:100C0000C8606948806861490968401A00900028F6
:100C100001DB009901E0009841426348C0685C4AEA
:100C20001268801A0190002801DB019801E0019808
:100C3000404201445C48026956480068101A02901C
:100C4000002801DB029801E0029840420844524922
:100C50000861564880684D490968401A009000288C
:100C600001DB009901E0009841425048C068484AC1
:100C70001268801A0190002801DB019801E00198B8
:100C80004042014449480069424A1268801A029071
:100C9000002801DB029801E00298404201443E48EE
:100CA00041614348806839490968401A009000282A
:100CB00001DB009901E0009841423D48C068344A98
:100CC0001268801A0190002801DB019801E0019868
:100CD00040420144364800692E4A1268801A029048
:100CE000002801DB029801E00298404201442A48B2
:100CF00081613048806825490968401A00900028C1
:100D000001DB009901E0009841422A48C068204A6E
:100D10001268801A0190002801DB019801E0019817
:100D200040420144234800691A4A1268801A02901E
:100D3000002801DB029801E002984042084416496D
:100D4000C8611D48806811490968401A0090002850
:100D500034DB009934E00000FC0300201004002084
:100D600024040020380400204C04002060040020EB
:100D700074040020880400209C040020B00400209B
:100D8000C4040020D804002018010020CC0000205A
:100D9000D4000020D0000020EC0400202C01002012
:100DA0004001002054010020680100207C01002047
:100DB00090010020A4010020B801002000984142C9
:100DC000FB48C068FB4A1268801A0190002801DBCA
:100DD000019801E0019840420144F5480069F64A53
:100DE0001268801A0290002801DB029801E0029844
:100DF00040420144F1480162F1488068F1490968C4
:100E0000401A0090002801DB009901E0009841425F
:100E1000EB48C068E74A1268801A0190002801DB9D
:100E2000019801E0019840420144E5480069E24A26
:100E30001268801A0290002801DB029801E00298F3
:100E400040420144DD484162DF488068DD4909686D
:100E5000401A0090002801DB009901E0009841420F
:100E6000D948C068D34A1268801A0190002801DB73
:100E7000019801E0019840420144D3480269CE48FC
:100E80000068101A0290002801DB029801E0029825
:100E900040420144C9488162CC488068C949096818
:100EA000401A0090002801DB009901E000984142BF
:100EB000C648C068BF4A1268801A0190002801DB4A
:100EC000019801E0019840420144C0480069BA4AD3
:100ED0001268801A0290002801DB029801E0029853
:100EE00040420144B548C162B9488068B5490968C3
:100EF000401A0090002801DB009901E0009841426F
:100F0000B348C068AB4A1268801A0190002801DB20
:100F1000019801E0019840420144AD480069A64AA9
:100F20001268801A0290002801DB029801E0029802
:100F300040420144A1480163A6488068A14909686C
:100F4000401A0090002801DB009901E0009841421E
:100F5000A048C068974A1268801A0190002801DBF7
:100F6000019801E00198404201449A480069924A80
:100F70001268801A0290002801DB029801E00298B2
:100F8000404201448D484163934880688D49096817
:100F9000401A0090002801DB009901E000984142CE
:100FA0008D48C068834A1268801A0190002801DBCE
:100FB000019801E0019840420144874800697E4A57
:100FC0001268801A0290002801DB029801E0029862
:100FD00040420144794881638048806879490968C2
:100FE000401A0090002801DB009901E0009841427E
:100FF0007A48C0686F4A1268801A0190002801DBA5
:10100000019801E0019840420144744800696A4A2D
:101010001268801A0290002801DB029801E0029811
:10102000404201446548C1636D488068654909686C
:10103000401A0090002801DB009901E0009841422D
:101040006748C0685B4A1268801A0190002801DB7B
:10105000019801E001984042014461480069564A04
:101060001268801A0290002801DB029801E00298C1
:1010700040420144514801645A4880685149096816
:10108000401A0090002801DB009901E000984142DD
:101090005448C068474A1268801A0190002801DB52
:1010A000019801E00198404201444E480069424ADB
:1010B0001268801A0290002801DB029801E0029871
:1010C000404201443D484164474880683D490968C1
:1010D000401A0090002801DB009901E0009841428D
:1010E0004148C068334A1268801A0190002801DB29
:1010F000019801E00198404201443B4800692E4AB2
:101100001268801A0290002801DB029801E0029820
:10111000404201442948816434488068294909686B
:10112000401A0090002801DB009901E0009841423C
:101130002E48C0681F4A1268801A0190002801DBFF
:10114000019801E0019840420144284800691A4A88
:101150001268801A0290002801DB029801E00298D0
:10116000404201441548C164214880681549096816
:10117000401A0090002801DB009901E000984142EC
:101180001B48C0680B4A1268801A0190002801DBD6
:10119000019801E001984042014415480069064A5F
:1011A0001268801A0290002824DB029824E00000D4
:1011B000B8010020D4000020D0000020EC04002062
:1011C000CC010020CC000020E0010020F401002030
:1011D000080200201C0200203002002044020020EF
:1011E000580200206C02002080020020940200209F
:1011F000A8020020029840420144FC480165FC48D6
:101200008068FC490968401A0090002801DB0099B9
:1012100001E000984142F648C068F74A1268801A17
:101220000190002801DB019801E00198404201444F
:10123000EF480069F14A1268801A0290002801DB29
:10124000029801E0029840420844E8494865EC48A9
:101250008068E8490968401A0090002801DB00997D
:1012600001E000984142E648C068E34A1268801AEB
:101270000190002801DB019801E0019840420144FF
:10128000DF480069DD4A1268801A0290002801DBFD
:10129000029801E0029840420144D4488165D9484F
:1012A0008068D4490968401A0090002801DB009941
:1012B00001E000984142D348C068CF4A1268801AC2
:1012C0000190002801DB019801E0019840420144AF
:1012D000CC480069C94A1268801A0290002801DBD4
:1012E000029801E0029840420144C048C165C648E6
:1012F0008068C0490968401A0090002801DB009905
:1013000001E000984142C048C068BB4A1268801A98
:101310000190002801DB019801E00198404201445E
:10132000B9480069B54A1268801A0290002801DBAA
:10133000029801E0029840420144AC480166B3487B
:101340008068AC490968401A0090002801DB0099C8
:1013500001E000984142AD48C068A74A1268801A6F
:101360000190002801DB019801E00198404201440E
:10137000A6480069A14A1268801A0290002801DB81
:10138000029801E002984042014498484166A04812
:10139000806898490968401A0090002801DB00998C
:1013A00001E0009841429A48C068934A1268801A46
:1013B0000190002801DB019801E0019840420144BE
:1013C000934800698D4A1268801A0290002801DB58
:1013D000029801E0029840420144844881668D48A9
:1013E000806884490968401A0090002801DB009950
:1013F00001E0009841428748C0687F4A1268801A1D
:101400000190002801DB019801E00198404201446D
:1014100080480069794A1268801A0290002801DB2E
:10142000029801E00298404201447048C1667A483F
:10143000806870490968401A0090002801DB009913
:1014400001E0009841427448C0686B4A1268801AF3
:101450000190002801DB019801E00198404201441D
:101460006D480069654A1268801A0290002801DB05
:10147000029801E00298404208445C4908676748C6
:1014800080685C490968401A0090002801DB0099D7
:1014900001E0009841426148C068574A1268801ACA
:1014A0000190002801DB019801E0019840420144CD
:1014B0005A480069514A1268801A0290002801DBDC
:1014C000029801E00298404201444848416754486C
:1014D000806848490968401A0090002801DB00999B
:1014E00001E0009841424E48C068434A1268801AA1
:1014F0000190002801DB019801E00198404201447D
:10150000474800693D4A1268801A0290002801DBB2
:10151000029801E002984042014434488167414802
:10152000806834490968401A0090002801DB00995E
:1015300001E0009841423B48C0682F4A1268801A77
:101540000190002801DB019801E00198404201442C
:1015500034480069294A1268801A0290002801DB89
:10156000029801E00298404201442048C1672E4899
:10157000806820490968401A0090002801DB009922
:1015800001E0009841422848C0681B4A1268801A4E
:101590000190002801DB019801E0019840420144DC
:1015A00021480069154A1268801A0290002801DB60
:1015B000029801E00298404201440C48C0F88010B3
:1015C0001A4880680B490968401A0090002801DB1E
:1015D000009901E0009841421448C068064A126828
:1015E000801A0190002823DB019823E0EC040020FE
:1015F000BC020020CC000020D4000020D00000203D
:10160000D0020020E4020020F80200200C03002099
:101610002003002034030020480300205C03002046
:10162000700300208403002098030020AC030020F6
:10163000019840420144FB480069FB4A1268801A45
:101640000290002801DB029801E002984042014428
:10165000F648C0F88410F6488068F6490968401AD0
:101660000090002801DB009901E000984142F04819
:10167000C068F14A1268801A0190002801DB0198C5
:1016800001E0019840420144E9480069E64A1268D5
:10169000801A0290002801DB029801E00298404283
:1016A0000144E248C0F88810E4488068E1490968CC
:1016B000401A0090002801DB009901E000984142A7
:1016C000DE48C068DC4A1268801A0190002801DBFD
:1016D000019801E0019840420144D8480069D24A8B
:1016E0001268801A0290002801DB029801E002983B
:1016F00040420844CD49C1F88C00D1488068CD49AA
:101700000968401A0090002801DB009901E0009868
:101710004142CB48C068C84A1268801A019000282C
:1017200001DB019801E0019840420144C44800698E
:10173000BD4A1268801A0290002801DB029801E07D
:10174000029840420144B948C0F89010BD488068F2
:10175000B8490968401A0090002801DB009901E0AF
:1017600000984142B748C068B34A1268801A019095
:10177000002801DB019801E0019840420144B14892
:101780000069A94A1268801A0290002801DB0298B9
:1017900001E0029840420144A448C0F89410AA48CD
:1017A0008068A4490968401A0090002801DB00996C
:1017B00001E000984142A448C0689F4A1268801A1C
:1017C0000190002801DB019801E0019840420144AA
:1017D0009D48026994480068101A0290002801DBB5
:1017E000029801E00298404201449048C0F89810E5
:1017F000964880688F490968401A0090002801DBEC
:10180000009901E0009841429048C0688A4A1268F5
:10181000801A0190002801DB019801E00198404204
:1018200001448A480069804A1268801A02900028A0
:1018300001DB029801E00298404201447B48C0F875
:101840009C10834880687B490968401A00900028F2
:1018500001DB009901E0009841427D48C068764A6A
:101860001268801A0190002801DB019801E00198BC
:1018700040420144764800696B4A1268801A02901F
:10188000002801DB029801E00298404201446748C9
:10189000C0F8A0106F48806866490968401A009037
:1018A000002801DB009901E0009841426948C068C6
:1018B000614A1268801A0190002801DB019801E05A
:1018C00001984042014463480069574A1268801AEF
:1018D0000290002801DB029801E002984042014496
:1018E0005248C0F8A4105C48806852490968401A00
:1018F0000090002801DB009901E000984142564821
:10190000C0684D4A1268801A0190002801DB0198D6
:1019100001E00198404201444F480069424A126880
:10192000801A0290002801DB029801E002984042F0
:1019300001443E48C0F8A810484880683D490968FD
:10194000401A0090002801DB009901E00098414214
:101950004248C068384A1268801A0190002801DBAA
:10196000019801E00198404201443C4800692E4A38
:101970001268801A0290002801DB029801E00298A8
:10198000404201442948C0F8AC10354880682949D4
:101990000968401A0090002801DB009901E00098D6
:1019A00041422F48C068244A1268801A01900028DA
:1019B00001DB019801E00198404201442848006998
:1019C000194A1268801A0290002801DB029801E08F
:1019D0000298404201441548C0F8B0102148806880
:1019E00014490968401A0090002801DB009901E0C1
:1019F000009841421B48C0680F4A1268801A019043
:101A0000002801DB019801E001984042014415489B
:101A10000069054A1268801A0290002824DB0298A7
:101A200024E00000AC030020D0000020EC040020E3
:101A3000C0030020CC000020D4000020D4030020EC
:101A4000E8030020FC0300201004002024040020F0
:101A5000380400204C04002060040020740400209E
:101A6000880400209C040020029840420144FE4863
:101A7000C0F8B410FD488068FD490968401A00901C
:101A8000002801DB009901E000984142F748C06856
:101A9000F84A1268801A0190002801DB019801E0E1
:101AA000019840420144F1480069F34A1268801AE3
:101AB0000290002801DB029801E0029840420144B4
:101AC000E948C0F8B810ED488068E9490968401A4B
:101AD0000090002801DB009901E000984142E748AE
:101AE000C068E44A1268801A0190002801DB01985E
:101AF00001E0019840420144E0480069DE4A126872
:101B0000801A0290002801DB029801E0029840420E
:101B10000144D548C0F8BC10D9488068D449096848
:101B2000401A0090002801DB009901E00098414232
:101B3000D348C068CF4A1268801A0190002801DBA0
:101B4000019801E0019840420144CD480069CA4A29
:101B50001268801A0290002801DB029801E00298C6
:101B600040420144C048C0F8C0100EBDBE4A1268D1
:101B7000C44B1A6000201DE0002118E0C0EBC00239
:101B8000B94B03EB820252F82120BE4B1B689A42EC
:101B90000CDAC0EBC002B44B03EB820252F82120F6
:101BA000B84B1A60B84A1060B84A1160491C06293F
:101BB000E4DB401C0628DFDB704710B5B248006844
:101BC00048B9B248006830B902F0D5FDB0A2002192
:101BD000084602F072FEAC48006850B9AB48006895
:101BE000012806D102F0C7FDABA20021084602F091
:101BF00064FEA548006850B9A4480068022806D1D0
:101C000002F0B9FDA6A20021084602F056FE9E4849
:101C1000006850B99D480068032806D102F0ABFD6A
:101C2000A1A20021084602F048FE9748006850B97A
:101C300096480068042806D102F09DFD9CA2002170
:101C4000084602F03AFE9048006850B98F48006894
:101C5000052806D102F08FFD97A20021084602F068
:101C60002CFE8948006850B988480068062806D1CB
:101C700002F081FD92A20021084602F01EFE824879
:101C80000068012809D18148006830B902F073FD6D
:101C90008DA20021084602F010FE7B480068012852
:101CA0000AD17A480068012806D102F064FD88A2B2
:101CB0000021084602F001FE7348006801280AD19D
:101CC00072480068022806D102F055FD82A2002168
:101CD000084602F0F2FD6C48006801280AD16B4802
:101CE0000068032806D102F046FD7DA200210846C7
:101CF00002F0E3FD6448006801280AD163480068E7
:101D0000042806D102F037FD77A20021084602F030
:101D1000D4FD5D48006801280AD15C4800680528A8
:101D200006D102F028FD72A20021084602F0C5FD8E
:101D30005548006801280AD154480068062806D191
:101D400002F019FD6CA20021084602F0B6FD4E48D3
:101D50000068022809D14D48006830B902F00BFD37
:101D600067A20021084602F0A8FD47480068022843
:101D70000AD146480068012806D102F0FCFC62A2A4
:101D80000021084602F099FD3F48006802280AD168
:101D90003E480068022806D102F0EDFC5CA200215A
:101DA000084602F08AFD3848006802280AD1374800
:101DB0000068032806D102F0DEFC57A20021084685
:101DC00002F07BFD3048006802280AD12F480068E5
:101DD000042806D102F0CFFC51A20021084602F0EF
:101DE0006CFD2948006802280AD1284800680528A7
:101DF00006D102F0C0FC4CA20021084602F05DFDB5
:101E00002148006802280AD120480068062806D127
:101E100002F0B1FC46A20021084602F04EFD1A482D
:101E20000068032809D11948006830B902F0A3FC02
:101E300041A20021084602F040FD13480068032833
:101E40000AD112480068012806D102F094FC3CA295
:101E50000021084602F031FD0B48006803287CD1C0
:101E60000A480068022870E0EC040020B00400205A
:101E7000CC000020D4000020D0000020C4040020AA
:101E8000D80400201800002020000020240000209A
:101E90002D33302C333000002D32302C3330000005
:101EA0002D31302C33300000302C33300000000056
:101EB00031302C333000000032302C333000000041
:101EC00033302C33300000002D33302C3230000002
:101ED0002D32302C323000002D31302C32300000C9
:101EE000302C32300000000031302C323000000045
:101EF00032302C323000000033302C323000000001
:101F00002D33302C313000002D32302C3130000098
:101F10002D31302C31300000302C313000000000E9
:101F200031302C313000000032302C3130000000D4
:101F300033302C31300000002D33302C30000000C5
:101F40002D32302C3000000007E006D102F013FCE7
:101F5000BCA20021084602F0B0FCBC48006803287F
:101F60000AD1BB480068032806D102F004FCB9A2DC
:101F70000021084602F0A1FCB448006803280AD1F9
:101F8000B3480068042806D102F0F5FBB2A2002194
:101F9000084602F092FCAD48006803280AD1AC481C
:101FA0000068052806D102F0E6FBADA20021084634
:101FB00002F083FCA548006803280AD1A448006801
:101FC000062806D102F0D7FBA7A20021084602F09E
:101FD00074FC9E480068042809D19D48006830B907
:101FE00002F0C9FBA2A20021084602F066FC974855
:101FF000006804280AD196480068012806D102F03A
:10200000BAFB9DA20021084602F057FC8F480068E9
:1020100004280AD18E480068022806D102F0ABFBE2
:1020200097A20021084602F048FC8848006804286E
:102030000AD187480068032806D102F09CFB92A2CF
:102040000021084602F039FC8048006804280AD1C3
:102050007F480068042806D102F08DFB8CA2002185
:10206000084602F02AFC7948006804280AD178481A
:102070000068052806D102F07EFB87A200210846F1
:1020800002F01BFC7148006804280AD170480068FF
:10209000062806D102F06FFB81A20021084602F05B
:1020A0000CFC6A480068052809D16948006830B905
:1020B00002F061FB7CA20021084602F0FEFB6348AF
:1020C000006805280AD162480068012806D102F09C
:1020D00052FB77A20021084602F0EFFB5B48006844
:1020E00005280AD15A480068022806D102F043FBAD
:1020F00071A20021084602F0E0FB54480068052860
:102100000AD153480068032806D102F034FB6CA2C0
:102110000021084602F0D1FB4C48006805280AD18E
:102120004B480068042806D102F025FB66A2002176
:10213000084602F0C2FB4548006805280AD1444819
:102140000068052806D102F016FB61A200210846AE
:1021500002F0B3FB3D48006805280AD13C480068FE
:10216000062806D102F007FB5BA20021084602F018
:10217000A4FB36480068062809D13548006830B904
:1021800002F0F9FA56A20021084602F096FB2F4809
:10219000006806280AD12E480068012806D102F0FE
:1021A000EAFA51A20021084602F087FB274800689E
:1021B00006280AD126480068022806D102F0DBFA78
:1021C0004BA20021084602F078FB20480068062850
:1021D0000AD11F480068032806D102F0CCFA46A2B3
:1021E0000021084602F069FB1848006806280AD159
:1021F00017480068042806D102F0BDFA40A2002169
:10220000084602F05AFB1148006806280AD1104817
:102210000068052806D102F0AEFA3BA2002108466C
:1022200002F04BFB0948006806280AD108480068FC
:10223000062806D102F09FFA35A20021084602F0D6
:102240003CFB10BD2D31302C300000002000002060
:1022500024000020302C300031302C3000000000F1
:1022600032302C300000000033302C3000000000F1
:102270002D33302C2D3130002D32302C2D313000CB
:102280002D31302C2D313000302C2D31300000001C
:1022900031302C2D3130000032302C2D3130000007
:1022A00033302C2D313000002D33302C2D323000C6
:1022B0002D32302C2D3230002D31302C2D3230008B
:1022C000302C2D323000000031302C2D3230000007
:1022D00032302C2D3230000033302C2D32300000C3
:1022E0002D33302C2D3330002D32302C2D33300057
:1022F0002D31302C2D333000302C2D3330000000A8
:1023000031302C2D3330000032302C2D3330000092
:1023100033302C2D333000000948804709480047EE
:10232000FEE7FEE7FEE7FEE7FEE7FEE7FEE7FEE785
:10233000FEE7FEE704480549054A064B70470000E2
:102340009103000889010008480C00204812002071
:10235000480E0020480E002032490143324A1160E5
:10236000704770B5002100230F22C4781CB32E4C97
:10237000246804F4E064C4F5E064C4F30721C1F107
:102380000404E3B20A4144789C40E1B284781440EA
:1023900021430C07210E254C05786155047804F083
:1023A0001F050124AC4005786D11AD0005F1E02555
:1023B000C5F8004109E0047804F01F050124AC4091
:1023C0001B4D0678761145F8264070BD194A0A4023
:1023D0000243154B1B1F1A60704739B1124A121D78
:1023E00012680243104B1B1D1A6006E00E4A121DB4
:1023F000126882430C4B1B1D1A607047042808D1D9
:102400004FF0E021096941F004014FF0E022116131
:1024100007E04FF0E021096921F004014FF0E022CC
:10242000116170470000FA050CED00E000E400E0E7
:1024300080E100E080FFFF1F10B50121080200F0DD
:1024400000FE00214FF4807000F0FBFD10BD30B5A0
:102450000246002000235068F84C20400D790C689B
:1024600044EA0524204350609068F54C2040D1E9AF
:1024700003542C438D682C434D7944EA4504204392
:102480009060D06A20F470000C7D641EE4B2234397
:1024900040EA0350D06230BD0021016001714171FA
:1024A0008160C16001610121017570470021E54A29
:1024B0001168E54A1140D0E900231A4383681A43A2
:1024C000C3681A431143E14AC2F80413704700215C
:1024D000016041608160C160704721B1826842F053
:1024E0000102826003E0826822F00102826070478C
:1024F0000A4600214168D64B19401143416070479C
:102500004162826270470A460021416821F01F0142
:1025100011434160704738B1CA49096841F400016C
:10252000CA4AC2F8041306E0C649096821F400014A
:10253000C64AC2F80413704738B1C249096841F469
:102540008001C24AC2F8041306E0BE49096821F4BA
:102550008001BE4AC2F804137047F0B504460D4628
:1025600000200021092D11DDE068A5F10A0606EB27
:102570004607072606FA07F18843A5F10A0606EB87
:10258000460603FA06F10843E0600CE0206905EB1B
:102590004507072606FA07F1884305EB450603FAC7
:1025A00006F108432061072A0FDA606B561E06EB1E
:1025B00086071F2606FA07F18843561E06EB860695
:1025C00005FA06F10843606322E00D2A0FDA206B5A
:1025D000D61F06EB86071F2606FA07F18843D61F8B
:1025E00006EB860605FA06F10843206310E0E06A70
:1025F000A2F10D0606EB86071F2606FA07F18843AF
:10260000A2F10D0606EB860605FA06F10843E06224
:10261000F0BD816841F08041816070470146002033
:102620008A6802F080420AB1012000E00020704771
:1026300021B1826842F48062826003E0826822F401
:1026400080628260704721B1826842F0020282603B
:1026500003E0826822F002028260704710B50A46E9
:1026600000210023416821F46041531E41EA4331B7
:10267000416010BD21B1426842F40062426003E053
:10268000426822F40062426070470146C86C80B222
:1026900070476C48001D0068704721B1826842F4A1
:1026A0008072826003E0826822F4807282607047E8
:1026B00021B1826842F40072826003E0826822F4F1
:1026C00000728260704738B15E49096841F4005178
:1026D0005E4AC2F8041306E05A49096821F4005121
:1026E0005A4AC2F804137047F0B504461546002054
:1026F00000220026092911DDE068A1F10A0707EB95
:10270000470C072707FA0CF29043A1F10A0707EBE1
:10271000470703FA07F21043E0600CE0206901EB81
:10272000410C072707FA0CF2904301EB410703FA2B
:1027300007F210432061A06BC0F30156EF1C06F1B5
:10274000010CA7EB0C0707EB870C1F2707FA0CF20D
:102750009043EF1C06F1010CA7EB0C0707EB870772
:1027600001FA07F21043A063F0BD10B50A4600213C
:102770000023816B21F44011531E41EA0351816310
:1027800010BD08B5002300930090009B0B440093FC
:10279000009B1A6008BD0A460021816821F470215F
:1027A0001143816070470A460021816821F440117D
:1027B000114381607047816841F4800181607047F6
:1027C000014600208A6802F480020AB1012000E07C
:1027D0000020704721B1426842F48062426003E009
:1027E000426822F480624260704721B1426842F43C
:1027F0008052426003E0426822F480524260704797
:1028000008B5024600200090009201F12800009BCC
:10281000184400900098006880B208BD10B50B46BF
:102820000021D9B2012404FA01F11AB144680C4321
:10283000446002E044688C43446010BDFFFEFFFC2E
:10284000FDF7FFC004230140E030FCFF0020014001
:10285000FFFD3FFF0246002013680B400BB1012033
:1028600000E000207047CA430260704770B502461E
:102870000020002300240B12556801268E4005EA33
:10288000060415681D4015B10CB1012000E00020C0
:1028900070BD00220A12D3430360704710B504468E
:1028A0009848844208D10121084600F086FB0021A7
:1028B000012000F082FB76E09348844208D1012198
:1028C000022000F07AFB0021022000F076FB6AE093
:1028D0008E48844208D10121042000F06EFB0021C3
:1028E000042000F06AFB5EE08948844208D101219F
:1028F000082000F062FB0021082000F05EFB52E09F
:102900008448844208D10121102000F056FB0021A8
:10291000102000F052FB46E07F48844208D101219C
:10292000202000F04AFB0021202000F046FB3AE086
:102930007A48844208D10121402000F03EFB00216A
:10294000402000F03AFB2EE07548844208D1012176
:10295000802000F032FB0021802000F02EFB22E0DE
:102960007048844208D10121801500F026FB002127
:10297000A01500F022FB16E06B48844208D101212B
:10298000401500F01AFB0021601500F016FB0AE06C
:102990006648844207D10121001500F00EFB00219A
:1029A000201500F00AFB10BDF0B50A4600210023F7
:1029B000002400BF3DE0012505FA01F3156805EA92
:1029C00003049C4234D105684F000326BE40B54342
:1029D000056015794E00B5400668354305601579E8
:1029E000012D02D01579022D16D185684F000326DE
:1029F000BE40B543856055794E00B5408668354385
:102A00008560456801268E40B543456045689679E6
:102A10008E40B6B235434560C5684F000326BE40C0
:102A2000B543C560D5794E00B540C6683543C5602D
:102A3000491C1029BFD3F0BD4FF6FF710160002182
:102A4000017141718171C171704708B54FF48032D5
:102A50000092009A0A430092009AC261C161009AF2
:102A6000C261C2690092C269009208BD024600209C
:102A700013690B400BB1012000E0002070470146B4
:102A8000086980B270470246002053690B400BB1C1
:102A9000012000E0002070470146486980B270477D
:102AA00001837047418370470AB1018300E041838D
:102AB00070474161704742694A4042617047F0B5D2
:102AC000002300244D07ED0E02FA05F3CE1000F1AD
:102AD000200555F826504E07F70E0F26BE40B54389
:102AE000CF1000F1200646F82750CE1000F1200547
:102AF00055F8265045EA0304CE1000F1200545F8AC
:102B00002640F0BD000002400004024000080240E0
:102B1000000C024000100240001402400018024065
:102B2000001C024000200240002402400028024015
:102B3000F948006840F00100F74908600020F649B4
:102B400008310860F4480068F4490840F249086018
:102B5000F348091D0860F348EF4984310860F048E4
:102B60001038091D0860EC48006820F48020EA490C
:102B700008600020E8490C310860E7498C310860A2
:102B800070470021E44A921C11701146087070478A
:102B900010B501460022002300204A11012A02D16B
:102BA000DD4C236808E0022A03D1DB4C7034236833
:102BB00002E0D94C7434236801F01F0201249440D0
:102BC0001C400CB1012000E0002010BD38B50020F1
:102BD00000900024002500BF3120FFF7D9FF0546F3
:102BE0000098401C00900098B0F5A04F01D0002D37
:102BF000F2D03120FFF7CCFF08B1012400E000241F
:102C0000204638BD01460020C34A106820F0F80075
:102C100040EAC10010607047C34908607047002156
:102C2000BD4A703211701170012802D004280AD1F7
:102C300004E00121B84A7032117005E00521B64A5E
:102C40007032117000E000BF00BF7047B7490860E4
:102C5000704770B5049C41EA82150126C6EB530605
:102C600045EA0645054345EA0465AB4E361D356029
:102C700070BDAD4908667047820142EA0172A64BF9
:102C800084331A607047A8498866704710B583017D
:102C900043EA016343EA02739F4C8834236010BD0A
:102CA000A14908677047A049C864704702460020E0
:102CB000994B0833186820F0EC6042EA010318438E
:102CC000954B08331860704702460020924B08333A
:102CD000186820F0784042EA010318438E4B08330D
:102CE00018607047014600208B4A0832106820F0B7
:102CF000030008431060704787480830006800F000
:102D00000C00704701460020834A0832106820F00A
:102D1000F000084310607047014600207E4A0832E8
:102D2000106820F4E050084310607047014600200E
:102D3000794A0832106820F4604040EAC10010600F
:102D40007047F0B50021002200240225002602234E
:102D5000714F08373F6807F00C0121B1042905D0F5
:102D6000082937D105E0724F076036E0714F0760E0
:102D700033E0694F3F1D3F68C7F38056664F3F1DE4
:102D80003F6807F03F036EB16A4FB7FBF3F7DFF818
:102D900088C10CF1040CDCF800C0CCF3881C07FBE4
:102DA0000CF40CE0624FB7FBF3F7DFF86CC10CF1E9
:102DB000040CDCF800C0CCF3881C07FB0CF4564F65
:102DC0003F1D3F68C7F301477F1C7D00B4FBF5F74B
:102DD000076002E0564F076000BF00BF4E4F083744
:102DE0003F6807F0F0010909534F7A5C0768D74044
:102DF0004760494F08373F6807F4E051890A4E4F52
:102E00007A5C4768D7408760434F08373F6807F4CC
:102E10006041490B484F7A5C4768D740C760F0BDB6
:102E2000002100F44072B2F5407F0AD13A4A0832DC
:102E3000116821F4F811414A02401143364A083220
:102E40001160354A70321268C0F30B031A43324BDB
:102E500070331A6070473549443908607047334908
:102E600040390860704736490860704701460020C5
:102E7000294A8C32106820F01F004A1E1043264A4F
:102E80008C321060704701460020234A8C32106853
:102E900020F4F8504A1E40EA02201F4A8C3210608B
:102EA0007047014600201C4A8C32106820F4401004
:102EB00008431060704701460020174A8C321068A2
:102EC00020F4400008431060704701460020124A79
:102ED0008C32106820F44030084310607047194964
:102EE0000860704739B10C4A3032126802430A4B0D
:102EF00030331A6006E0084A303212688243064BCB
:102F000030331A607047F9B1034A34321268024311
:102F1000014B34331A601CE000380240FFFFF6EA30
:102F2000103000240030002000004742800E47424D
:102F30000024F40000127A0030000020FFFCFF0F94
:102F40005C014742E01147428F4A126882438E4B30
:102F50001A60704739B18C4A121D126802438A4BBD
:102F60001B1D1A6006E0884A121D12688243864BB8
:102F70001B1D1A60704739B1834A0C321268024334
:102F8000814B0C331A6006E07F4A0C321268824390
:102F90007D4B0C331A60704739B17B4A103212688E
:102FA0000243794B10331A6006E0774A10321268F8
:102FB0008243754B10331A60704739B1724A243A14
:102FC00012680243704B243B1A6006E06E4A243AB2
:102FD000126882436C4B243B1A60704739B16A4ACD
:102FE000203A12680243684B203B1A6006E0664AAA
:102FF000203A12688243644B203B1A60704739B113
:10300000614A1C3A126802435F4B1C3B1A6006E09F
:103010005D4A1C3A126882435B4B1C3B1A60704746
:1030200039B1594A143A12680243574B143B1A609B
:1030300006E0554A143A12688243534B143B1A6017
:10304000704739B1504A103A126802434E4B103B58
:103050001A6006E04C4A103A126882434A4B103B11
:103060001A60704739B1484A1C3212680243464B15
:103070001C331A6006E0444A1C3212688243424BF9
:103080001C331A60704739B13F4A2032126802433C
:103090003D4B20331A6006E03B4A203212688243DF
:1030A000394B20331A60704739B1374A24321268DD
:1030B0000243354B24331A6006E0334A2432126847
:1030C0008243314B24331A60704739B12E4A2C3277
:1030D000126802432C4B2C331A6006E02A4A2C3229
:1030E00012688243284B2C331A60704739B1264A44
:1030F000303212680243244B30331A6006E0224A11
:10310000303212688243204B30331A6070470128F6
:1031100008D11D493C31096841F008011A4A3C3286
:10312000116007E018493C31096821F00801164A8E
:103130003C321160704739B1134A273A1278024382
:10314000114B273B1A7006E00F4A273A1278824348
:103150000D4B273B1A7070470B484030006840F019
:103160008070094940310860704701460020064AD6
:10317000283A12680A400AB1012000E00020704796
:1031800001492639087070473438024010B50446AA
:10319000FE48844208D101210846FFF752FF002172
:1031A0000120FFF74EFF9DE0B4F1804F08D10121CF
:1031B0000846FFF735FF00210120FFF731FF91E0BE
:1031C000F348844208D101210220FFF729FF0021A2
:1031D0000220FFF725FF85E0EE48844208D1012157
:1031E0000420FFF71DFF00210420FFF719FF79E0FD
:1031F000E948844208D101210820FFF711FF00218E
:103200000820FFF70DFF6DE0E448844208D101215A
:103210001020FFF705FF00211020FFF701FF61E0FC
:10322000DF48844208D101212020FFF7F9FE002168
:103230002020FFF7F5FE55E0DA48844208D101214D
:103240000220FFF7FEFE00210220FFF7FAFE49E010
:10325000D548844209D101210804FFF7F2FE00217C
:103260004FF48030FFF7EDFE3CE0D048844209D1B6
:1032700001214804FFF7E5FE00214FF40030FFF77D
:10328000E0FE2FE0CA48844209D101218804FFF7FB
:10329000D8FE00214FF48020FFF7D3FE22E0C5487E
:1032A000844208D101214020FFF7BAFE00214020CE
:1032B000FFF7B6FE16E0C048844208D10121802005
:1032C000FFF7AEFE00218020FFF7AAFE0AE0BB4810
:1032D000844207D101218015FFF7A2FE0021A0152D
:1032E000FFF79EFE10BD00220288A84B98420ED028
:1032F000AC4B98420BD0B0F1804F08D0A44B984211
:1033000005D0A44B984202D0A34B984204D14FF66B
:103310008F731A404B881A43A04B984207D0A04B9A
:10332000984204D04FF6FF431A400B891A4302809B
:103330004B68C3620B880385944B984202D0994B2B
:10334000984201D18B7A03860123838270474FF024
:10335000FF3141600021018001814180817270470D
:103360000185828270470A46002101884FF68F73DB
:10337000194011430180704741627047C162704734
:103380000146486A70470146088D704721B102889E
:1033900042F00202028004E002884FF6FD731A40F8
:1033A0000280704721B1028842F00402028004E0EA
:1033B00002884FF6FB731A400280704721B10288E1
:1033C00042F08002028004E002884FF67F731A40C8
:1033D0000280704702884FF6F7731A400280028815
:1033E0000A430280704702884FF6FF431A4002806A
:1033F00002880A430280704721B1028842F001022C
:10340000028004E002884FF6FE731A400280704783
:1034100070B5002400220023058C4FF6FE7635405F
:103420000584028C8388048B4FF68F752C40B51E63
:103430002C400D882C43751E2A408D892A434D88C7
:103440002A43524DA84202D0564DA84213D14FF6FE
:10345000F7752A40CD892A434FF6FB752A408D889F
:103460002A434FF6FF652B404FF6FF552B400D8A40
:103470002B434D8A2B43838004838D6845630284EC
:1034800070BD70B5002400220023058C4FF6EF7646
:1034900035400584028C8388048B48F6FF752C40E8
:1034A0004FF6FF452C400D884FF6FF7606EA0525BE
:1034B0002C434FF6DF752A408D8906EA05152A430D
:1034C0004D8806EA05152A43304DA84202D0354DF5
:1034D000A8421DD14FF67F752A40CD894FF6FF7661
:1034E00006EA05152A434FF6BF752A408D8806EA7D
:1034F00005152A434FF6FF352B404FF2FF752B4041
:103500000D8A06EA85052B434D8A06EA85052B437D
:10351000838004838D688563028470BD70B5002448
:1035200000220023058C4FF6FF6635400584028C8F
:103530008388848B4FF68F752C404FF6FC752C409A
:103540000D882C434FF6FF552A408D894FF6FF76A4
:1035500006EA05252A434D8806EA05252A430B4D30
:10356000A84202D00F4DA84238D14FF2FF752A4031
:10357000CD894FF6FF7606EA05252A434FF6FF353B
:103580002A408D8806EA05252A4319E000000140FB
:103590000004004000080040000C00400010004003
:1035A000001400400004014000400140004401407C
:1035B0000048014000180040001C0040002000406E
:1035C0004EF6FF752B404DF6FF752B400D8A06EA2F
:1035D00005152B434D8A06EA05152B43838084830A
:1035E0008D68C563028470BD70B50022002300247D
:1035F000058C4EF6FF7635400584038C8488828BDB
:1036000048F6FF752A404FF6FF452A400D884FF6D1
:10361000FF7606EA05252A434DF6FF752B408D8976
:1036200006EA05352B434D8806EA05352B43FE4D4A
:10363000A84202D0FD4DA84208D14BF6FF752C40A0
:103640000D8A4FF6FF7606EA85152C438480828327
:103650008D680564038470BD0021018041808180F4
:1036600081608181C18101824182704770B50346CA
:10367000002000241846183001258D40ACB21D8C66
:10368000A5431D8409B108290AD100EB6100056832
:103690004FF68F76354005600568154305600FE0ED
:1036A0000D1FC5F34E052844056848F6FF763540E2
:1036B000056005684FF6FF7606EA02263543056089
:1036C00070BD4163704781637047C1637047016497
:1036D00070470A460021018B4FF68F731940114342
:1036E000018370470A460021018B48F6FF73194099
:1036F0004FF6FF7303EA02231943018370470A461A
:103700000021818B4FF68F731940114381837047DD
:103710000A460021818B48F6FF7319404FF6FF736C
:1037200003EA02231943818370470A460021018B73
:103730004FF6F77319401143018370470A46002181
:10374000018B4FF2FF7319404FF6FF7303EA022318
:103750001943018370470A460021818B4FF6F773A6
:1037600019401143818370470A460021818B4FF233
:10377000FF7319404FF6FF7303EA02231943818355
:1037800070470A460021018B4FF6FB731940114325
:10379000018370470A460021018B4FF6FF33194021
:1037A0004FF6FF7303EA02231943018370470A4669
:1037B0000021818B4FF6FB731940114381837047C1
:1037C0000A460021818B4FF6FF3319404FF6FF73F5
:1037D00003EA02231943818370470A460021018BC3
:1037E0004FF67F7319401143018370470A46002149
:1037F000018BC1F30E014FF6FF7303EA0223194355
:10380000018370470A460021818B4FF67F73194070
:103810001143818370470A460021818BC1F30E0159
:103820004FF6FF7303EA02231943818370470A4668
:103830000021018C4FF6FD7319401143018470473C
:103840000A460021018C4FF6F77319401143018499
:1038500070470A460021018C4FF6DF7319404FF67E
:10386000FF7303EA02131943018470470A460021DB
:10387000018C4FF67F7319404FF6FF7303EA021372
:103880001943018470470A460021018C4FF6FF530B
:1038900019404FF6FF7303EA02231943018470476E
:1038A0000A460021018C4FF2FF7319404FF6FF7357
:1038B00003EA02231943018470470A460021018C60
:1038C0004DF6FF7319404FF6FF7303EA02331943B5
:1038D0000184704730B5002301248C40A3B2048CCE
:1038E0009C430484048C02FA01F5ADB22C43048499
:1038F00030BD30B5002304248C40A3B2048C9C431B
:103900000484048C02FA01F5ADB22C43048430BD6A
:10391000828B4FF2FF331A408283828B4FF6FF7304
:1039200003EA01231A4382837047F0B50C4615461B
:10393000002100220026078C4EF6FF7C07EA0C07C8
:103940000784818B028C4FF6FF7707EA043640F636
:10395000FF4739404FF6FF7707EA052739434FF60F
:10396000FF7707EA0337394345F6FF773A4046F4D5
:1039700080573A4381830284F0BD828B4FF6F37304
:103980001A408283828B0A4382837047F0B50C46CB
:103990001546002100220026078C4FF6FF6C07EA2F
:1039A0000C070784818B028C4FF6FF7707EA042609
:1039B0004FF60C7739404FF6FF7707EA03172F438E
:1039C00039434FF2FF573A4046F480773A438183B8
:1039D0000284F0BD028B4FF2FF331A400283028B48
:1039E0004FF6FF7303EA01231A4302837047F0B5D1
:1039F0000C461546002100220026078C4FF6EF7C6E
:103A000007EA0C070784018B028C4FF6FF7707EA61
:103A1000041640F6FF4739404FF6FF7707EA0337B1
:103A200039434FF6FF7703E00000014000040140F6
:103A300007EA052739434FF65F773A4046F010070B
:103A40003A4301830284F0BD028B4FF6F3731A40B0
:103A50000283028B0A4302837047F0B50C46154679
:103A600000210022068C4FF6FE773E400684018B33
:103A7000028C4FF60C7631407E1C06EA03162E436C
:103A800031434FF6F576324044F00106324301836C
:103A90000284F0BD70B505460C46208850B92389D4
:103AA000A28861882846FFF7D8FFE1882846FFF7FB
:103AB000CBFF25E0208804280AD12389A2886188C9
:103AC0002846FFF794FFE1882846FFF783FF17E0B9
:103AD000208808280AD12389A28861882846FFF710
:103AE00055FFE1882846FFF748FF09E02389A288AF
:103AF00061882846FFF719FFE1882846FFF708FF8D
:103B000070BD002101804180012181800021C180A0
:103B1000018170472DE9F04105460C46002601273A
:103B2000608808B9022600E00026A088012801D19B
:103B3000022700E001272088A0B92389A288618894
:103B40002846FFF78AFFE1882846FFF77DFF238993
:103B50003A4631462846FFF74AFFE1882846FFF7F4
:103B600039FF13E02389A28861882846FFF73FFFC9
:103B7000E1882846FFF72EFF23893A46314628463A
:103B8000FFF76BFFE1882846FFF75EFFBDE8F08195
:103B90000146486B70470146886B70470146C86B09
:103BA00070470146086C70470A884B881A438B8817
:103BB0001A43CB881A430B891A434B891A438B89C2
:103BC0001A43A0F844207047002101804180818081
:103BD000C180018141818181704731B1B0F84420B9
:103BE00042F40042A0F8442005E0B0F84420C2F3BB
:103BF0000E02A0F84420704721B1828842F00402EE
:103C0000828004E082884FF6FB731A4082807047FE
:103C100021B1828842F00102828004E082884FF65E
:103C2000FE731A40828070471AB183890B438381E7
:103C300002E083898B43838170478182704702460B
:103C40000020138A0B400BB1012000E000207047D8
:103C5000CA430282704730B5024600200023002488
:103C6000158A05EA0103958905EA010413B10CB12F
:103C7000012000E0002030BDCA430282704741EAC3
:103C80000203A0F8483070471AB183890B4383813F
:103C900002E083898B438381704721B1828842F09F
:103CA0000802828004E082884FF6F7731A4082800F
:103CB000704701894FF6F8721140018170470A463A
:103CC000002101894FF68F7319401143018170471C
:103CD00030B504460D4629462046FFF7F0FF2089FF
:103CE00040F00700208130BD2DE9F04104460D462B
:103CF00016461F46602D06D13B460122314620461E
:103D0000FFF775FE05E03B46012231462046FFF7EE
:103D1000A4FE29462046FFF7D2FF208940F0070085
:103D20002081BDE8F08130B50C4600210189C9B27F
:103D30004FF6FF7505EA0325154325432943018105
:103D400030BD2DE9F04105460E4617469846002441
:103D500043463A4631462846FFF7E5FF2C894FF6A1
:103D6000F870044044F007044FF68F70044044F0AC
:103D700070042C81BDE8F081F0B504460D4616466E
:103D80001F463B46324629462046FFF7CCFF208996
:103D900040F480402081F0BD82884FF68F731A4036
:103DA000828082880A438280704702894FF6F873C6
:103DB0001A40028102890A430281704702894FF644
:103DC0007F731A40028102890A4302817047F0B56D
:103DD0000C4615461E460021002200230189028B55
:103DE000038C4FF6F877394021434FF6FC473A40B1
:103DF00040F201173A434FF6DD773B404FF6FF772D
:103E000007EA06172F433B43018102830384F0BD79
:103E100021B1828842F08002828004E082884FF6DD
:103E20007F731A4082807047A0F8501070470000DE
:103E300010B50446FA48844208D101211020FFF74A
:103E400000F900211020FFF7FCF857E0F548844204
:103E500009D101214804FFF7E3F800214FF40030B5
:103E6000FFF7DEF84AE0F048844209D101218804D6
:103E7000FFF7D6F800214FF48020FFF7D1F83DE09E
:103E8000EA48844209D10121C804FFF7C9F800219A
:103E90004FF40020FFF7C4F830E0E548844209D130
:103EA00001210805FFF7BCF800214FF48010FFF74F
:103EB000B7F823E0DF48844208D101212020FFF732
:103EC000C0F800212020FFF7BCF817E0DA48844250
:103ED00009D101218807FFF7A3F800214FF08040A6
:103EE000FFF79EF80AE0D548844207D1012140053A
:103EF000FFF796F800216005FFF792F810BD2DE955
:103F0000FF4705460E460024A14600BFA046B089E3
:103F100000B100BF2C8A24F44054F08804432C8262
:103F2000AC8941F20C608443B088318908437189BF
:103F300008430443AC81AC8A24F44074B089044340
:103F4000AC826846FEF7FDFEB548854202D0B9480E
:103F5000854202D1DDF80C9001E0DDF80890A889D7
:103F600000F4004040B109EBC90000EB09103168D2
:103F70004900B0FBF1F707E009EBC90000EB0910BD
:103F800031688900B0FBF1F76420B7FBF0F0040161
:103F90002009642101FB1078A88900F4004040B199
:103FA000322000EBC800B0FBF1F000F00700044342
:103FB00008E0322000EB08106421B0FBF1F000F0C3
:103FC0000F0004432C81BDE8FF874FF416510160B8
:103FD00000218180C18001810C21418100218181EA
:103FE000704710B502460020108A20F470600B88DC
:103FF0004C8823438C882343CC8823431843108266
:1040000010BD0021018041808180C180704721B1B5
:10401000828942F40052828104E082894DF6FF7366
:104020001A4082817047028B02F47F420283028B26
:104030000A430283704721B1828942F4004282819F
:1040400003E08289C2F30E028281704721B1828A25
:1040500042F40062828204E0828A4FF2FF731A40C7
:1040600082827047C1F308028280704701468888C7
:10407000C0F308007047028A4FF6F0731A400282BC
:10408000028A0A430282704721B1828942F0020209
:10409000828104E082894FF6FD731A408281704765
:1040A00082894FF2FF731A40828182890A4382819A
:1040B0007047028A4FF6DF731A400282028A0A436F
:1040C0000282704721B1028A42F48042028204E0F7
:1040D000028A4BF6FF731A4002827047818941F0D1
:1040E00001018181704721B1828A42F008028282F7
:1040F00004E0828A4FF6F7731A4082827047028B7F
:10410000D2B20283028B42EA01220283704721B1BC
:10411000828A42F02002828204E0828A4FF6DF73B4
:104120001A408282704721B1828A42F01002828254
:1041300004E0828A4FF6EF731A4082827047828AC7
:104140004FF6FB731A408282828A0A43828270474A
:1041500021B1828A42F00202828204E0828A4FF612
:10416000FD731A40828270471AB1838A0B4383829F
:1041700002E0838A8B4383827047F0B503460024B4
:1041800000260025002040F66A17B94200D100BF82
:104190001846C1F3421401F01F06012707FA06F57D
:1041A000012C01D10C3004E0022C01D1103000E0D0
:1041B00014301AB107682F43076002E00768AF4365
:1041C0000760F0BD02460020B1F5007F00D100BFBE
:1041D00013880B400BB1012000E00020704701F470
:1041E0000072B2F5007F00D100BFCA430280704761
:1041F00070B50246002400230025002040F66A1610
:10420000B14200D100BFC1F3421501F01F030126E6
:1042100006FA03F3012D13D19689334017E000000D
:10422000001001400044004000480040004C0040A5
:10423000005000400014014000780040007C004025
:10424000022D02D1168A334001E0968A33400C12C7
:10425000012606FA04F41688344013B10CB101208B
:1042600000E0002070BD10B50022002340F66A1463
:10427000A14200D100BF0A1201249440A3B2DC4342
:10428000048010BD10B504466FF00400FEF7B6F8C8
:10429000E11704EB5171C1F3C701394A117010469F
:1042A000007800EB4001C1EBC0104FF6FF7101EA4E
:1042B000C0003449088010BD0146314A12784A4393
:1042C0004FF0E0235A6100229A611A46126942F0C7
:1042D00001021A6100BF4FF0E022106900F00102F4
:1042E0001AB100F48032002AF5D04FF0E0221269B2
:1042F00022F001024FF0E0231A6100229A61704718
:104300000146204A12884A434FF0E0235A610022B6
:104310009A611A46126942F001021A6100BF4FF019
:10432000E022106900F001021AB100F48032002A84
:10433000F5D04FF0E022126922F001024FF0E023A5
:104340001A6100229A61704770B504464FF40770F5
:1043500094FBF0F0C6B24FF4077094FBF0F100FB51
:10436000114085B205E04FF40770FFF7C9FF701EDA
:10437000C6B2002EF7D115B12846FFF7C1FF70BDB8
:10438000400000204200002000BF704700BF4C4AA0
:10439000128802F04002002AF9D0C2B2484B9A803B
:1043A000704710B588B0044601210846FEF79AFD13
:1043B00001211020FEF7F0FD072209214148FEF7F8
:1043C0007EFB07220A213F48FEF779FB4FF4C060CD
:1043D000069002208DF81C008DF81D0000208DF83D
:1043E0001E0001208DF81F0006A93648FEF7DCFAF2
:1043F00002940020ADF80C00ADF80E00ADF81000EE
:10440000ADF814000C20ADF8120002A92C48FFF7FB
:1044100076FD01212A48FFF7FAFD012240F22551DD
:104420002748FFF7AAFE25208DF8040003208DF809
:1044300005008DF8060001208DF8070001A8FDF7A2
:1044400090FF08B010BD10B540F225511C48FFF791
:10445000CFFE10B31A48FFF709FEC4B21A4800880D
:1044600000F40040C8B91848008800F4804060B1EA
:104470000A2C03D000201449088020E0124800884C
:1044800040F400401049088019E00D2C06D10E4878
:10449000008840F480400C49088010E00A480088F9
:1044A000C0F30D0009490C5407480088401C064918
:1044B000088008460088C72801DD0020088010BD5C
:1044C000001001400000024048000020B00500201C
:1044D0001CB501214820FEF705FD4FF40070009047
:1044E00000208DF8040003208DF8050001208DF8D0
:1044F000070069466548FEF757FA54200090694660
:104500006348FEF751FA1CBD1CB501214420FEF79B
:10451000E9FC4FF4A070009000208DF80400032007
:104520008DF8050001208DF8070069465748FEF711
:104530003BFA4FF42070009001208DF80700694687
:104540005448FEF731FA1CBD10B5044614B10120E1
:104550005149087050480078002837D04FF4007156
:104560004A48FEF783FA70B140214948FEF77EFAC7
:1045700048B110214648FEF779FA20B10421444899
:10458000FEF774FA10BB0A20FFF7DEFE0020424956
:1045900008704FF400713D48FEF768FA08B9012031
:1045A00010BD40213A48FEF761FA08B90220F7E74A
:1045B00010213748FEF75AFA08B90320F0E7042122
:1045C0003348FEF753FAE0B90420E9E74FF40071ED
:1045D0002E48FEF74BFA012813D140212C48FEF754
:1045E00045FA01280DD110212948FEF73FFA01288C
:1045F00007D104212648FEF739FA012801D12649BE
:1046000008700020CCE710B50020FFF79DFF04469E
:10461000012C06D0022C12D0032C1ED0042C31D138
:104620002FE000F0A8F81DA20021084600F045F98F
:1046300000F088FC00F052FE00F0B4FE23E000F031
:104640009AF816A20021084600F037F900F07AFC2B
:1046500000F044FE00F034FF15E000F08CF80FA2EB
:104660000021084600F029F900F06CFC00F036FE4D
:10467000FBF728FFFCF724FAFDF778FAFDF79DFA1F
:1046800001E000E000BF00BF10BD000000180240C4
:10469000000C0240000802404A0000204C6F616498
:1046A000696E670070B504460E4626B12021FE48AB
:1046B000FEF7F6F903E02021FB48FEF7F3F90821A5
:1046C000F948FEF7EFF9002517E01021F748FEF74B
:1046D000E9F904F0800020B10421F448FEF7E0F984
:1046E00003E00421F148FEF7DDF91021EF48FEF761
:1046F000D7F96006040E681CC5B2082DE5DB082159
:10470000E948FEF7CDF92021E748FEF7C9F970BD69
:1047100070B504460D4605F1B001C8B20021FFF79F
:10472000C1FF102141EA14100021FFF7BBFF04F084
:104730000F0141F001000021FFF7B4FF70BD10B57B
:1047400000218D20FFF7AEFF00211420FFF7AAFF04
:104750000021AF20FFF7A6FF10BD10B500218D206E
:10476000FFF7A0FF00211020FFF79CFF0021AE20E3
:10477000FFF798FF10BD70B5002419E004F1B001F7
:10478000C8B20021FFF78EFF00210846FFF78AFF1D
:1047900000211020FFF786FF002505E00121002001
:1047A000FFF780FF681CC5B2802DF7DB601CC4B228
:1047B000082CE3DB70BD2DE9F04107460E4690461C
:1047C00000250024A8F12000C5B27F2F02DD0027BC
:1047D000B01CC6B231463846FFF79AFF002408E005
:1047E00004EB0511B24A505C0121FFF75BFF601C2E
:1047F000C4B2082CF4DB701CC1B23846FFF788FF46
:10480000002409E004EB05110831A94A505C01219C
:10481000FFF748FF601CC4B2082CF3DBBDE8F08151
:1048200010B50246012000E050430B1EA1F1010427
:10483000E1B2F9D110BD2DE9FF5F074691461D4653
:104840000E9E4FF0000A002433E0281B401EC1B228
:104850000A20FFF7E5FFB9FBF0F00A21B0FBF1F207
:1048600001FB1208BAF1000F13D1681EA04210DD3F
:10487000B8F1000F0BD1B34606EBDB71491001FB19
:104880000471C8B220220199FFF795FF0FE04FF0A5
:10489000010AB34606EBDB71491001FB0471C8B293
:1048A00008F13001CAB20199FFF785FF00BF601C13
:1048B000C4B2AC42C9DBBDE8FF9F2DE9F04104461C
:1048C0000F46154600260EE0AA5D39462046FFF742
:1048D00072FF04F10800C4B2782C02DD0024B81C79
:1048E000C7B2701CC6B2A85D0028EDD1BDE8F0814A
:1048F0002DE9F04180460E461546002731464046D8
:10490000FFF706FF00240AE06A4A02EB8511085D02
:104910000121FFF7C7FE781CC7B2601CC4B2102C7F
:10492000F2DB701CC1B24046FFF7F2FE00240CE03F
:104930006900491C5F4A02EB4111085D0121FFF744
:10494000B1FE781CC7B2601CC4B2102CF0DBBDE80D
:10495000F0812DE9F05F06460F4690461C46DDF8D3
:1049600028A04FF0000BE11704EB5171C910A4EB24
:10497000C10131B92046E11704EB5171C1F3C705FC
:1049800006E02046E11704EB5171C910491CCDB275
:104990003D4615E029463046FFF7BAFEB1460BE02A
:1049A00059460BF1010B1AF801000121FFF77AFEBD
:1049B00009F1010000F0FF09C145F1DB681CC5B237
:1049C000A542E7DBBDE8F09F1CB501212020FEF7E2
:1049D00089FA1520009001208DF8040000208DF840
:1049E000060002208DF8050069463048FDF7DCFF1F
:1049F00015212E48FEF754F801211020FEF772FA17
:104A00002820009001208DF8040000208DF8060079
:104A100002208DF8050069462348FDF7C5FF2821CF
:104A20002148FEF73DF801212048FEF739F86420BF
:104A3000FFF78AFC01211D48FEF734F8C820FFF774
:104A400083FC01211948FEF72BF80021AE20FFF767
:104A500029FE00210846FFF725FE00211020FFF760
:104A600021FE00214020FFF71DFE00218120FFF7DD
:104A700019FE0021CF20FFF715FE0021A120FFF72E
:104A800011FE0021C820FFF70DFE0021A620FFF730
:104A900009FE0021A820FFF705FE00213F20FFF7B7
:104AA00001FE0021D32007E0001002400014024064
:104AB000AE6E00084B000020FFF7F4FD0021084611
:104AC000FFF7F0FD0021D520FFF7ECFD002180204D
:104AD000FFF7E8FD0021D920FFF7E4FD0021F120D8
:104AE000FFF7E0FD0021DA20FFF7DCFD00211220B6
:104AF000FFF7D8FD0021DB20FFF7D4FD0021402087
:104B0000FFF7D0FD00212020FFF7CCFD002102207F
:104B1000FFF7C8FD00218D20FFF7C4FD0021142000
:104B2000FFF7C0FD0021A420FFF7BCFD0021A62057
:104B3000FFF7B8FD0021AF20FFF7B4FD0021AF2043
:104B4000FFF7B0FDFFF717FE00210846FFF7E0FD75
:104B50001CBD000000B58DB001210846FEF7C2F96A
:104B600001218802FEF718FA0F200B9003208DF820
:104B7000300000208DF833000BA9FE48FDF714FF2C
:104B800001218802FEF75DFA00214FF48060FEF7F4
:104B900058FA002007900A9009904FF4803008904E
:104BA00007A8FDF783FC002001908DF808008DF820
:104BB00009000390059001208DF8180001A9EE4826
:104BC000FDF745FC0121EC48FDF787FC0DB000BD69
:104BD00010B50446072301222146E748FDF7BDFC36
:104BE000E548FDF716FD00BF0221E348FDF732FE60
:104BF0000028F9D0E048FDF748FD10BD2DE9F0414F
:104C000007460C460025002605E03846FFF7E0FF82
:104C10000544701CC6B2A642F7DBB5FBF4F080B2C7
:104C2000BDE8F08110B52DED048B14210020FFF7B5
:104C3000E5FF00EE100AB8EE400AD04880ED000A09
:104C4000006801F0A3FF41EC190B9FEDCD0B53EC75
:104C5000102B01F09DFE41EC180B01F067FEC749D7
:104C6000086014210120FFF7C9FF00EE100AB8EE1A
:104C7000400AC54880ED000A006801F087FF41EC5A
:104C8000190B9FEDBF0B53EC102B01F081FE41EC93
:104C9000180B01F04BFEBC49086014210220FFF7FD
:104CA000ADFF00EE100AB8EE400AB84880ED000AE9
:104CB000006801F06BFF41EC190B9FEDB10B53EC59
:104CC000102B01F065FE41EC180B01F02FFEAF49EF
:104CD000086014210320FFF791FF00EE100AB8EEE0
:104CE000400AAB4880ED000A006801F04FFF41EC3C
:104CF000190B9FEDA30B53EC102B01F049FE41EC77
:104D0000180B01F013FEA249086014210420FFF7DC
:104D100075FF00EE100AB8EE400A9E4880ED000ACA
:104D2000006801F033FF41EC190B9FED950B53EC3C
:104D3000102B01F02DFE41EC180B01F0F7FD954909
:104D4000086014210520FFF759FF00EE100AB8EEA5
:104D5000400A914880ED000A006801F017FF41EC1D
:104D6000190B9FED870B53EC102B01F011FE41EC5A
:104D7000180B01F0DBFD8849086014210620FFF7BD
:104D80003DFF00EE100AB8EE400A844880ED000AAC
:104D9000006801F0FBFE41EC190B9FED790B53EC21
:104DA000102B01F0F5FD41EC180B01F0BFFD7B4924
:104DB000086014210720FFF721FF00EE100AB8EE6B
:104DC000400A774880ED000A006801F0DFFE41EC00
:104DD000190B9FED6B0B53EC102B01F0D9FD41EC3F
:104DE000180B01F0A3FD6E49086014210E20FFF797
:104DF00005FF00EE100AB8EE400A6A4880ED000A8E
:104E0000006801F0C3FE41EC190B9FED5D0B53EC04
:104E1000102B01F0BDFD41EC180B01F087FD61493D
:104E20000860BDEC048B10BD10B52DED028B53480E
:104E3000006801F0ABFE41EC180B53EC182B5AA1A3
:104E40005B4800F0A3FC5A4A00210846FFF735FDF5
:104E50004D48006801F09AFE41EC180B53EC182BFA
:104E600051A1544800F092FC524A00214020FFF723
:104E700024FD4648006801F089FE41EC180B53EC14
:104E8000182B49A14C4800F081FC4B4A022100201C
:104E9000FFF713FD3E48006801F078FE41EC180B67
:104EA00053EC182B40A1454800F070FC434A022106
:104EB0004020FFF702FD3748006801F067FE41EC33
:104EC000180B53EC182B38A13D4800F05FFC3C4A0E
:104ED00004210020FFF7F1FC2F48006801F056FE86
:104EE00041EC180B53EC182B2FA1364800F04EFC68
:104EF000344A04214020FFF7E0FC2848006801F014
:104F000045FE41EC180B53EC182B27A12E4800F05E
:104F10003DFC2D4A06210020FFF7CFFC2048006809
:104F200001F034FE41EC180B53EC182B1EA127485E
:104F300000F02CFC254A06214020FFF7BEFCBDEC0A
:104F4000028B10BDF0B52DED048BE7B001250020DC
:104F50001F4908601F4908601F4908604EF65F211D
:104F600041F2670000F0B5FB00BF00201B4908605C
:104F7000ACE100000000024000220140D800002007
:104F80006666666666664A3FDC000020E000002038
:104F9000E4000020E8000020EC000020F0000020E9
:104FA000F4000020F8000020252E33665600000093
:104FB000280B00203C0B0020500B0020640B00202D
:104FC000780B00208C0B0020A00B0020B40B0020DD
:104FD00004010020080100200C0100200000002036
:104FE000FB480068012800D173E1002407E00A2192
:104FF0000020FFF703FE01A941F82400641C632C84
:10500000F5DB5E9E019B9A1B002A01DB134600E044
:1050100053425F9F029EF11B002901DB0E4600E018
:105020004E421E44609F039BD81B002801DB0346B1
:1050300000E0434233446426734300EE103AB8EE76
:10504000C08A419E019B9A1B002A01DB134600E0A7
:105050005342429F029EF11B002901DB0E4600E0F5
:105060004E421E44439F039BD81B002801DB03468E
:1050700000E0434233446426734300EE103AF8EEF6
:10508000C08A4C9E019B9A1B002A01DB134600E05C
:1050900053424D9F029EF11B002901DB0E4600E0AA
:1050A0004E421E444E9F039BD81B002801DB034643
:1050B00000E0434233446426734300EE103AB8EEF6
:1050C000C00AB0EE409AB0EE080AC8EE000AB0EE90
:1050D000608AB0EE080AC8EE800AF0EE608AB0EE90
:1050E000080AC9EE000AB0EE609AB4EEE88AF1EE62
:1050F00010FA51D2B4EEC98AF1EE10FA4CD20198EE
:1051000080B2ADF898010020ADF89A01019880B204
:10511000ADF894010020ADF89601002420E001A82C
:1051200050F82400BDF89811884208DD01A830F835
:10513000240080B2ADF89801A0B2ADF89A0101A8A0
:1051400050F82400BDF89411884208DA01A830F81C
:10515000240080B2ADF89401A0B2ADF89601641CB1
:105160005C2CDCDBBDF89801BDF89411401A99491C
:10517000994A126841F8220097480068401C9649F5
:105180000860BDF89801BDF89461831B3246014662
:1051900092A000F0EFFA90E0F4EEC88AF1EE10FA77
:1051A00043D2F4EEC98AF1EE10FA3ED2002420E098
:1051B00001A850F82400BDF89811884208DD01A824
:1051C00030F8240080B2ADF89801A0B2ADF89A0191
:1051D00001A850F82400BDF89411884208DA01A80B
:1051E00030F8240080B2ADF89401A0B2ADF8960179
:1051F000641C3F2CDCDBBDF89801BDF89411401A0B
:105200008149824A126841F8220080480068401CA7
:105210007E490860BDF89801BDF89461831B324651
:1052200001467BA000F0A6FA47E0B4EEC89AF1EE82
:1052300010FA42D2B4EEE89AF1EE10FA3DD2002410
:1052400020E001A850F82400BDF89811884208DD3C
:1052500001A830F8240080B2ADF89801A0B2ADF8F2
:105260009A0101A850F82400BDF89411884208DA88
:1052700001A830F8240080B2ADF89401A0B2ADF8D6
:105280009601641C4A2CDCDBBDF89801BDF8941132
:10529000401A6A496A4A126841F822006848006860
:1052A000401C67490860BDF89801BDF89461831BF4
:1052B0003246014663A000F05DFA61480368534836
:1052C0000268454801686AA000F054FA012D3FF4D5
:1052D00087AE00BF67B0BDEC048BF0BD10B50024F5
:1052E00000BF08E03B4850F82400644909680844BE
:1052F00062490860641C38480068401EA042F1DC26
:1053000035480068401E5D49096891FBF0F05B4933
:105310000860084601685AA000F02CFA002408E052
:10532000394850F82400584909680844564908602B
:10533000641C36480068401EA042F1DC3348006817
:10534000401E5149096891FBF0F04F49086008463A
:1053500001684BA000F00EFA002408E0374850F82E
:1053600024004A490968084448490860641C3448D4
:105370000068401EA042F1DC31480068401E4349ED
:10538000096891FBF0F041490860084601683CA0BB
:1053900000F0F0F90020104908601C490860284915
:1053A000086010BD10B53548006837490968884263
:1053B00005DC364800683449096888426CDDFFF72F
:1053C000DAF933A200210846FFF777FA77E063E0C5
:1053D0000000002078060020040100203435487ABF
:1053E0002C204144435F4D41583D25642C204144CD
:1053F000435F4D494E3D25642C20486569676874BC
:105400003D25640D0A000000080800200801002066
:105410003635487A2C204144435F4D41583D256440
:105420002C204144435F4D494E3D25642C20486566
:10543000696768743D25640D0A0000009809002022
:105440000C0100203535487A2C204144435F4D4102
:10545000583D25642C204144435F4D494E3D256411
:105460002C204865696768743D25640D0A000000BA
:1054700025642025642025640D0A0000CC0000204E
:1054800025640D0A00000000D0000020D400002098
:10549000422855502900000018480068184909683A
:1054A000884205DC1748006815490968884206DD0E
:1054B000FFF761F914A200210846FFF7FEF910BDBD
:1054C00010B5104800680E490968884205DC0D488F
:1054D00000680A490968884207DDFFF74CF90CA209
:1054E00000210846FFF7E9F906E0FFF744F90BA2AF
:1054F00000210846FFF7E1F910BD0000D0000020B0
:10550000D4000020CC0000204428444F574E2900EE
:1055100043285249474854290000000045284C457B
:105520004654290030B587B004460D4601210820B5
:10553000FDF721FD01210846FDF7D4FC012005906F
:1055400002208DF8180003208DF8190000208DF836
:105550001A0002208DF81B0005A97D48FDF724FAEA
:10556000022200217A48FDF7AAFAADF8085000207F
:10557000ADF80A000394ADF8100002A97548FDF7D4
:10558000B2FE0020744908804880012088800020F5
:10559000C88008816F48FEF77DFA012203216D481B
:1055A000FEF742FB01216B48FDF726FF32208DF804
:1055B000040002208DF8050000208DF8060001206F
:1055C0008DF8070001A8FCF7CCFE07B030BD10B580
:1055D0006248007800F08000002854D101215D4825
:1055E000FEF739FBD0B15D48007800F04000A8B16B
:1055F0005A48007800F03F003F280AD15748007809
:1056000040F08000554908704FF0FF305449086061
:1056100004E052480078401C5049087002214D486F
:10562000FEF719FB78B34D48007800F0400078B1E0
:105630004A48007840F08000484908704548FEF725
:10564000A7FA4749086000214248FEF7F0F81AE03F
:10565000002042490870424908604048007840F004
:1056600040003E49087000213A48FDF7C5FE002180
:105670003848FDF781FE02213648FEF7D8F80121AF
:105680003448FDF7B9FE03213248FEF7F5FA10BDA4
:1056900038B500BF3148007800F08000C0B12F4815
:1056A000007800F03F044FF0FF30A4FB00412C488D
:1056B000006824184FF010004FF0060322464FF008
:1056C000000100900846FFF7B6F800202349087053
:1056D00038BD7FB505460C4601210220FDF74BFC85
:1056E0000295ADF804400020ADF80600ADF80C00BE
:1056F00001A91C48FDF7F7FD012211461948FEF7E4
:1057000093FA01211748FDF777FE1D208DF8000060
:1057100001208DF8010000208DF8020001208DF895
:1057200003006846FCF71DFE7FBD10B501210D4842
:10573000FEF791FA012805D100200B4908600120ED
:105740000A49086001210748FEF796FA10BD0000DB
:1057500000000240000C0040DC0B00201001002083
:105760001401002000040040FC0000200000002084
:10577000704700000FB4044910B503AA029800F066
:1057800065FB10BC5DF814FB440000200FB41CB591
:10579000074B06AA7B4469460090059800F03DFB44
:1057A0000020694600F04CFB1CBC5DF814FB0000B7
:1057B000A90600002DE9F04106460024106875296D
:1057C000314616A510D0AFF30080002802DA40421F
:1057D00013A507E031688A0701D512A502E0490741
:1057E00004D511A5012401E0AFF3008000210A22B5
:1057F00006F1240709E0B0FBF2FCB0FBF2F302FB78
:105800001C00303078541846491C0028F3D1234638
:105810002A463046BDE8F04100F093B80000000091
:105820002D0000002B000000200000002DE9F047B3
:105830004FF0000A89460446C0F820A02046E168DF
:105840008847002876D0252806D0D4E90121904742
:10585000206A401C2062F1E7E16820460025884765
:10586000C4F81CA006460027C4F818A02A2E09D0A8
:10587000304601F03EF838B304EB8708303EC8F8F4
:10588000186019E059F8041B204604EB8702916167
:10589000E1688847012F064618D1E069002820DA20
:1058A00025F020051DE0D8F8180000EB800006EB7D
:1058B00040003038C8F818002046E168884706469E
:1058C00001F017F80028EED1012F0AD02E2E08D1B2
:1058D0002046E16888477F1C0646022F45F02005D8
:1058E000C4DBA069002803DA404245F00105A0614D
:1058F000E80701D025F01005B6B1A6F1410019283E
:1059000002D8203645F400654A46314620462560D7
:105910004D46FAF773FC58B1012806D0ED1D25F06D
:10592000070000F1080989E704E005F1040985E7AB
:1059300030468AE7206ABDE8F087704770477047B5
:1059400070472DE9F0470D4699469246044600F10E
:1059500024080168880604D5E06921F0100121605F
:1059600000E00120A84201DD471B00E00027A169FB
:105970007A1902EB0900081AA0612078C00602D447
:105980002046AFF30080002608E0D4E901211AF890
:1059900006009047206A401C761C20624E45F4DBCE
:1059A0002078C0060AD52046AFF3008006E0D4E98F
:1059B000012130209047206A401C2062381EA7F148
:1059C0000107F4DC07E0D4E9012118F8050090474D
:1059D000206A401C2062281EA5F10105F3DC204648
:1059E000AFF300802078000602D50220BDE8F087E2
:1059F0000120FBE770472DE9FF4F0C461E464FF094
:105A0000FF378BB0D2E90001DDF860800A908A464A
:105A1000C1F30A5505B93D46002108464FF0000084
:105A2000BAF1000F00F4400005DA00EB80004FF4FB
:105A3000400101EA50004FEA9059B9F1010F00DD31
:105A4000B9460A9850EA4A000ED044F61050A5F222
:105A5000FF3545432F14B8F1000F1ED07542291EA3
:105A60001EDDC9F100021CE0B8F1010F4FF000008B
:105A700001D0302103E0F24305E02154401CB04244
:105A8000FBDB30460022002121540B99C1F808802D
:105A9000C1E900200FB0BDE8F08FBD1B6D1CDEE733
:105AA0004A4600DA694206A800F06CFA06AB93E8B1
:105AB000070003AB83E8070050460A9900F046FB55
:105AC0008DE80700A0F500501F3800900398002DC6
:105AD00009DD42F21F014A46084403A903906846C3
